:020000040800F2
:10000000E81E002095020008A5300008D52E000843
:10001000A13000084B1F00088D4C000800000000B4
:100020000000000000000000000000000738000889
:100030005D29000800000000DD3200087942000858
:10004000AF020008AF020008AF020008AF020008CC
:10005000AF020008AF020008AF020008AF020008BC
:10006000AF020008AF020008AF020008AF020008AC
:10007000AF020008AF020008AF020008AF0200089C
:10008000AF020008AF020008AF020008AF0200088C
:10009000D14A0008AF020008AF020008AF02000812
:1000A000AF020008AF020008AF020008AF0200086C
:1000B000AF020008AF020008AF020008AF0200085C
:1000C000AF020008AF020008AF020008AF0200084C
:1000D000AF02000825450008AF020008AF02000883
:1000E000AF020008AF0200081B48000800F002F849
:1000F00000F0B0F80AA090E8000C82448344AAF112
:100100000107DA4501D100F0A5F8AFF2090EBAE80F
:100110000F0013F0010F18BFFB1A43F0010318473B
:100120004C5800006C5800000A444FF0000C10F8C6
:10013000013B13F0070408BF10F8014B1D1108BF65
:1001400010F8015B641E05D010F8016B641E01F805
:10015000016BF9D113F0080F1EBF10F8014BAD1C55
:100160000C1B09D16D1E58BF01F801CBFAD505E073
:1001700014F8016B01F8016B6D1EF9D59142D6D3CD
:10018000704700000023002400250026103A28BFF5
:1001900078C1FBD8520728BF30C148BF0B607047F9
:1001A0006E2900F01A83702900F06F84662905F02B
:1001B0000183652905F0FE82672905F0FB8261292C
:1001C00005F0FA8203681B0A28BF41F08001692903
:1001D00000F0A080642900F09D80752900F09A80CD
:1001E0006F2900F0FC83782900F03B84E92900F0B6
:1001F0009783E42900F09483F52900F09183EF2997
:1002000000F0F983F82900F03A840368DB0928BF7D
:1002100041F08001632901F05180732901F056807B
:10022000E32901F06180F32901F066800020704726
:100230001FB501F0B7F804000020002105F0A4FA72
:10024000401C60600020002105F088FAE0601FBDBE
:1002500010B510BD01F078F81146FFF7E9FF05F081
:1002600067F801F055F903B4FFF7F2FF03BC04F09F
:10027000D2FF0000EFF30980704780F309887047D0
:10028000EFF30880704780F30888704740BA7047E2
:10029000C0BA70470948804709480047FEE7FEE7B3
:1002A000FEE7FEE7FEE7FEE7FEE7FEE7FEE7FEE726
:1002B00004480549054A064B704700007D42000886
:1002C000ED000008E8180020E81E0020E81A0020D1
:1002D000E81A0020704700001CB50C46064B7B4412
:1002E00069460090204600F092FA044600206946D4
:1002F00000F0A0FA20461CBD530500000FB40449CD
:1003000010B503AA029800F09BFA10BC5DF814FB2C
:10031000480000202DE9F0410646002410687529A8
:10032000314616A510D000F0C4F9002802DA404288
:1003300013A507E031688A0701D512A502E0490735
:1003400004D511A5012401E000F0BCF900210A2226
:1003500006F1240709E0B0FBF2FCB0FBF2F302FB6C
:100360001C00303078541846491C0028F3D123462D
:100370002A463046BDE8F04100F0D6B90000000042
:100380002D0000002B000000200000002DE9F05F90
:10039000894604464FF0000ADFF874B1FB44C0F808
:1003A00020A02046E1688847002874D0252806D080
:1003B000D4E901219047206A401C2062F1E7002621
:1003C0005F462046E16888472028054607DB312D37
:1003D00005D2781910F8200C08B10643F1E7B007F0
:1003E00001D526F00406C4F81CA00027C4F818A004
:1003F0002A2D09D0284604F007FF38B304EB8708FC
:10040000303DC8F8185019E059F8041B204604EB99
:1004100087029161E1688847012F054618D1E0699C
:10042000002820DA26F020061DE0D8F8180000EB9E
:10043000800005EB40003038C8F818002046E1681D
:100440008847054604F0E0FE0028EED1012F0AD0CF
:100450002E2D08D12046E16888477F1C0546022FD3
:1004600046F02006C4DBA069002803DA404246F0CB
:100470000106A061F00701D026F010066C2D0BD00C
:10048000682D09D04C2D39D06A2D35D0742D35D03A
:100490007A2D33D016E038E0E1682F4620468847B1
:1004A000B842054609D16C2F26D04FF48060E16830
:1004B000064320468847054604E06C2F1AD04FF4C7
:1004C000807006430DB3A5F14100192802D82035EC
:1004D00046F400664A462946204626604E46FFF707
:1004E0005FFE80B101280BD0F61D26F0070000F159
:1004F000080956E74020E4E78020D8E70020D6E747
:1005000006F104094DE7284652E7206ABDE8F09F4E
:10051000CD54000010B5431C02E010F8011B71B16E
:100520008107FAD14FF0013202C88C1A8C4314EAC9
:10053000C211F9D0C01A0A0603D0C01E10BDC01ADD
:1005400010BD0A0401D0801E10BD0902FCD0401E5F
:1005500010BD032A40F2308010F0030C00F015802B
:1005600011F8013BBCF1020F624498BF11F801CBB6
:1005700000F8013B38BF11F8013BA2F1040298BF1B
:1005800000F801CB38BF00F8013B11F0030300F085
:100590008782083AC0F0088051F8043B083A51F8C5
:1005A00004CBA0E80810F5E7121D5CBF51F8043B2E
:1005B00040F8043BAFF30080D20724BF11F8013BA1
:1005C00011F801CB48BF11F8012B24BF00F8013B03
:1005D00000F801CB48BF00F8012B70474FF0013CF9
:1005E00050F8042B51F8043B9A4221D1A2EB0C03A2
:1005F000934313EACC1317D150F8042B51F8043B62
:100600009A4215D1A2EB0C03934313EACC130BD1FE
:1006100050F8042B51F8043B9A4209D1A2EB0C0389
:10062000934313EACC13DBD04FF00000704700BFB8
:10063000D01A01BAB1FA81F101F0180122FA01F0E1
:10064000CB40C1F12001DBB2C0B2C01A2CFA01F3D9
:10065000D11A914311EAC311E6D170477047704730
:100660007047704770B5044685690068C10601D5BA
:10067000302600E02026C00707D070BDD4E9012154
:1006800030469047206A401C20626D1EF6D570BD32
:1006900070B5044685690078C00707D170BDD4E9FC
:1006A000012120209047206A401C20626D1EF6D553
:1006B00070BD09684A0501D540B27047C905FCD52F
:1006C00000B2704709684A0501D5C0B27047C90534
:1006D000FCD580B2704770B50C460546012A05D09E
:1006E0002878800600D5EA69002302E0012305E0AE
:1006F0005B1C934202D2E05C0028F9D1A869E6189D
:10070000C01AA861286A184428622846FFF7AAFF81
:1007100004E0D5E9012114F8010B9047B442F8D365
:100720002846FFF7B5FF70BD2DE9F0470D46994605
:100730009246044600F124080168880604D5E06961
:1007400021F01001216000E00120A84201DD471BDB
:1007500000E00027A1697A1902EB0900081AA061DC
:100760002078C00602D42046FFF77CFF002608E070
:10077000D4E901211AF806009047206A401C761C33
:1007800020624E45F4DB2078C0060AD52046FFF7EC
:1007900069FF06E0D4E9012130209047206A401C1F
:1007A0002062381EA7F10107F4DC07E0D4E901213B
:1007B00018F805009047206A401C2062281EA5F109
:1007C0000105F3DC2046FFF763FF2078000602D521
:1007D0000220BDE8F0870120FBE711680268006A8B
:1007E000530501D508700AE0D30501D5088006E05D
:1007F000130603D5C217C1E9000200E0086001201A
:100800007047000001694A1C02610878704700B512
:100810008FB0CDE901310021059105497944CDE939
:10082000031011466846FFF7B1FD0FB000BD000090
:10083000E5FFFFFF0A6802F8010B0A60704700003D
:10084000074B70B50D467B44FFF7E1FF0446284691
:1008500000F056FD10B14FF0FF3070BD204670BD66
:10086000634A00002DE9FF5F15468A460446DFF81B
:10087000AC80F8440027D8E900103E46CDE90010CE
:1008800010E03AF816106A4602A800F03DFD411C3F
:1008900007D02178890603D5E269391891420DD82D
:1008A0000744761C2078800602D5E069B84205DD51
:1008B000AE42E6DB3AF816000028E2D1A069C01B80
:1008C000A0612046FFF7CEFED8E90010CDE9001068
:1008D000002017E03AF818106A4602A800F014FD4C
:1008E000B0F1FF3F81460BD000250DF1080B05E06C
:1008F000D4E901211BF8050090476D1C4D45F7D345
:1009000008F10100B0428046E4DB206A38442062EE
:100910002046FFF7BDFEBDE8FF9F00000A50000023
:100920002DE9F0418046D21D22F007020025D2E9D0
:100930000002F52915A614D0011E72F1000106DA95
:100940000023D0EB030063EB020211A608E0D8F805
:1009500000108B0701D50FA602E0490701D50EA6AE
:1009600001251146002408F1240704E000F0CAF82C
:1009700030323A55641C50EA0102F7D12B46324618
:1009800021464046BDE8F041FFF7CEBE0000000022
:100990002D0000002B0000002000000030B40021DA
:1009A00000F1240408E002F00705D208303542EADD
:1009B0004372DB086554491C52EA0305F3D104680D
:1009C000002310A2250707D5A40600D421B1C469CD
:1009D00001230DA2641EC46130BCFFF7A5BE10B593
:1009E000044621461068FFF76DFE02462046BDE82A
:1009F00010400023D2E7D21D22F00701D1E90023E5
:100A0000CCE700000000000030000000F0B40D460C
:100A10000188090502D5214C7C4402E01F4C7C442E
:100A20000E34002100F1240608E002F00F0712093D
:100A3000E75D42EA03721B097754491C52EA030737
:100A4000F3D102780023120704D5702D06D009B126
:100A5000022311342246F0BCFFF766BE0123103496
:100A6000F8E770B504460D4621461068FFF72AFEE8
:100A7000024629462046BDE870400023C6E7D21D45
:100A800022F00703D3E90023C0E70368126843F0AC
:100A9000200303600823C3610023B7E76C4E000006
:100AA00010B5203AC0F00B80B1E81850203AA0E809
:100AB0001850B1E81850A0E81850BFF4F5AF5FEA3D
:100AC000027C24BFB1E81850A0E8185044BF18C9F0
:100AD00018C0BDE810405FEA827C24BF51F8043B97
:100AE00040F8043B08BF7047D20728BF31F8023BEB
:100AF00048BF11F8012B28BF20F8023B48BF00F87F
:100B0000012B704730B5B0F10A024FEA900E71F137
:100B100000034EEA817EB0EB0E0061EB91014FEADB
:100B2000101E4EEA017E10EB0E0041EB11114FEA50
:100B3000102E4EEA016E10EB0E0041EB11214FEA30
:100B4000104E4EEA014E10EB0E0041EB11414018E1
:100B500041F100014FEAD00040EA41704FEAD10173
:100B600010EB80054FEA810444EA907444EB0104E1
:100B70006D1944EB0404521BA3414FF0000348BF1E
:100B80000A3200D530BD401C41F1000130BD704734
:100B90002DE9FF4F0C461E464FF0FF378BB0D2E9D0
:100BA0000001DDF860800A908A46C1F30A5505B954
:100BB0003D46002108464FF00000BAF1000F00F456
:100BC000400005DA00EB80004FF4400101EA5000DC
:100BD0004FEA9059B9F1010F00DDB9460A9850EA81
:100BE0004A000ED044F61050A5F2FF3545432F14AD
:100BF000B8F1000F1ED07542291E1EDDC9F100029A
:100C00001CE0B8F1010F4FF0000001D0302103E0EB
:100C1000F24305E02154401CB042FBDB3046002289
:100C2000002121540B99C1F80880C1E900200FB0C0
:100C3000BDE8F08FBD1B6D1CDEE74A4600DA694255
:100C400006A800F0F3FB06AB93E8070003AB83E8CC
:100C5000070050460A9900F069FC8DE80700A0F5EE
:100C600000501F3800900398002D0ADD42F21F014A
:100C70004A460844002303A90390684600F0D2FEC8
:100C800009E0A0F500504A461F38002303A903904D
:100C9000684600F0DCFE8DE807000004000C03D07D
:100CA0004FF0FF30410800E01046B8F1000F03D0CC
:100CB0000022009215461EE0751E05D4FFF722FFA4
:100CC000303262556D1EF9D5B3460122084302D079
:100CD00000227F1C04E02078302801D100227F1EF2
:100CE000002A099784D01DE0112D07DAFFF70AFFCB
:100CF000303262556D1C50EA0102F5D1084302D032
:100D00000098C8B10EE00021681E05E0235C625C1B
:100D100063542254401E491C8142F7DBAB46A81B9A
:100D2000401E0990002004F80B000B98099AC0F8A7
:100D30000880C0E9002B7AE711264FF0000857E73A
:100D40002DE9F04F88460446D21D22F0070191B0EC
:100D5000D1E90001CDE90A0104F042FA02460B98FC
:100D6000C00F01D02D2007E02068810701D52B207E
:100D700002E0202101EAC000032A099001D0072ADD
:100D800005DB03464146204600F010FB0BE12078CE
:100D9000800601D5E06900E00620B8F1650F8146C4
:100DA00006D0B8F1660F18D0B8F1670F70D131E0F6
:100DB0000020B9F1110F009001DB112301E009F1CE
:100DC00001030AAA01A90CA8FFF7E2FEDDE90C70F5
:100DD000002609F10105834647E001204B460090BB
:100DE0004FF000470AAA01A90CA8FFF7D1FEDDE9E0
:100DF0000DB00C995D46002610B909F101000D18DF
:100E0000B9EB050003D4C0F1FF3609F10105A5EBEC
:100E100009002BE0B9F1010F01DA4FF001090020C0
:100E2000B9F1110F0090484601DD112300E003469F
:100E30000AAA01A90CA8FFF7ABFEDDE90C704D462C
:100E400000268346207800070AD4AB4500DA5D46C9
:100E500001A8012D04DD411911F8011C302907D02A
:100E60004F4502DA17F1040F04DA012082460FE041
:100E70006D1EEEE7002F02DCED1B3E4403E0781C04
:100E8000A84200DD7D1CB81B00F1010A4FF00047AD
:100E90002078000703D4AA4501DB4FF0FF3A002178
:100EA000B7F1004F0DF143088DF8431024D0022014
:100EB0002B23002F01DA7F422D230A21021EA0F1ED
:100EC000010000DC5FB197FBF1FC97FBF1F201FB45
:100ED0001C7C17460CF1300C08F801CDEEE7A8F1A8
:100EE000010003702188090501D5452100E0652135
:100EF000A0F1010800F8011C09980FA9A1EB08074F
:100F0000FF1D00B10120411901EBEA70A1693844CD
:100F1000081A401EA0612078C00602D42046FFF7C0
:100F2000A1FB099828B1D4E901219047206A401C0F
:100F300020622078C00622D52046FFF793FB1EE0F2
:100F4000002E04DBB34502DD01A8805D00E0302007
:100F5000D4E901219047206A401C2062761CAAF146
:100F600001005FEA000A0AD100F01CFAC0680168BB
:100F7000405CD4E901219047206A401C2062281E71
:100F8000A5F10105DCDC07E0D4E9012118F8010B2B
:100F90009047206A401C2062381EA7F10107F3DC4D
:100FA0002046FFF775FB032011B041E62DE9F04F15
:100FB00004460D46D21D22F0070089B0D0E9009703
:100FC0004846394604F00CF90246F80F01D02D23AB
:100FD00007E02068810701D52B2302E0202101EAE8
:100FE000C0038DF820300BB1012000E00020032A5F
:100FF000824601D0072A04DB2946204600F0D6F9B4
:101000003FE12078800601D40D2500E0E569C7F3B3
:101010000A560D2D49DA00214FEA175B08464FF0BA
:101020000000002F00F4400007DA00EB80004FF4CE
:10103000400100EBD07001EA60008115012901DD5B
:101040004FF0FF3100224FEA850CBCF1180F06D398
:101050001346ACF118004FF08052C24003E04FF449
:10106000801323FA0CF30CF10C0CBCF1200F04D309
:10107000ACF1200C09FA0CF001E007FA0CF00029A1
:101080004FF0004801DD18B90FE00ED140450CD3F8
:1010900019EB02095F4121B9404502D19F4329EA7A
:1010A0000209BBEB175F00D0761C2088000502D533
:1010B0007B48784402E07A487844193808AA3023FB
:1010C00002F80A30037C0AF10101002E0AF1020A3B
:1010D00053546A4602DC4FF0300101E04FF0310119
:1010E0004FF001088DF8001002D0A6F2FF3603E0A1
:1010F00059EA470100D06B4E002D02DC2178090728
:1011000004D54FF002082E218DF80110C4460021AD
:101110000BE0C7F303433F01C35C491C6D1E02F89B
:101120000830052908F1010801DA002DF1DC002161
:101130000CE000EB1973491C1B786D1E082902F89E
:1011400008304FEA091908F1010801DA002DF0DC36
:1011500021688B0602D516E0A8F10108E04505DDFF
:1011600002EB080313F8013C302BF5D0B8F1000F67
:1011700009DD02EB080313F8013C2E2B03D109070C
:1011800001D4A8F10108002D05DD3E2102F8081068
:101190006D1E08F10108407C002E02F8080008F1DD
:1011A000010804DA2D20764202F8080002E02B2024
:1011B00002F808000A214FF47A70864208F101080B
:1011C0000BDB96FBF0F3303302F8083096FBF0F3BC
:1011D00008F1010800FB136601E0642E0CDB6420BB
:1011E00096FBF0F3303302F8083096FBF0F308F189
:1011F000010800FB136601E00A2E06DB96FBF1F006
:10120000303002F8080008F1010896FBF1F001FB0C
:101210001060303002F80800A16908F1010808EBFD
:10122000050202EB0A00081AA0612078C00602D469
:101230002046FFF717FA216A08AE01EB0A00206288
:1012400004E0D4E9012116F8010B9047BAF1010A34
:10125000F7D22078C00602D52046FFF703FA6E4683
:1012600009E016F8010B3E280FD0D4E90121904780
:10127000206A401C2062B8F10108F2D22046FFF734
:1012800007FA09B00320BDE8F08F206A28442062E5
:1012900003E0D4E90121302090476D1EEBD3F8E73D
:1012A0000D48000002FCFFFF10B5436913B1AFF316
:1012B000008001E0FFF70FFA012010BD127800F165
:1012C00024010A7000224A700122EDE711684FF0F4
:1012D000FF32E9E710B5436913B1AFF3008001E0D5
:1012E000FFF7C0FA012010BD128800F124018284AA
:1012F0000022C2840122EDE711684FF0FF32E9E7D6
:10130000007B00F08000704770B516460C4605461D
:1013100000F040F8036893F80101012806D0FF2C83
:101320000FD8185D68B101202C7070BDD3F807018B
:101330003246214603F2071303442846BDE87040B5
:1013400018474FF0FF3070BD754600F0EBF8AE4621
:1013500005006946534620F00700854618B020B5C1
:10136000FEF7A6FFBDE820404FF000064FF0000753
:101370004FF000084FF0000B21F00701AC46ACE83D
:10138000C009ACE8C009ACE8C009ACE8C0098D46AA
:101390007047000010B500F005F8001D10BD00BF3B
:1013A000E943000000487047A41800202DE9F041EF
:1013B0001F46044603260168072A01F4006004DB87
:1013C00008B116A505E016A503E008B115A500E0D3
:1013D00015A521F010002060A069C01EA0610FB10A
:1013E000401EA0612046FFF73DF94FB1D4E901212D
:1013F00038469047206A401C2062C01C206206E0EC
:10140000206AFAE7D4E9012115F8010B9047761E0E
:10141000F8D22046FFF73CF9BDE8F0814E414E007E
:101420006E616E00494E4600696E66002DE9F04718
:10143000814616468AB0354878440DC88DE80D00BF
:1014400032487844801C03AC0DC884E80D0041F696
:101450009B300844372190FBF1F290FBF1F5A5F1A8
:10146000800501FB12041B3C02D56442012000E010
:101470000020DFF898A080460027FA44AAF1BE0AAF
:101480000EE0E0070AD03246684607EB4701012329
:101490000AEB810100F0DBFA8DE8070064107F1C85
:1014A000002CEED1194F7F44AE3F19E0E80715D06C
:1014B00007EB04100DF1180A90E80E008AE80E0000
:1014C000C068F04201D1981908903246012306A95C
:1014D00003A800F0BCFA03AB83E807006D10641C9E
:1014E000002DE3D14FF0010332466946B8F1000FF9
:1014F00003A802D000F096FA01E000F0A8FAC9E9CA
:101500000001C9F808200AB0BDE8F08718450000BE
:1015100010B50446AFF300802046BDE81040FEF74A
:10152000A2BE000000487047841800205FEA400C0B
:1015300008BF91F0000F4FEA8C234FEAC12243EA23
:1015400051514FEA1C5018BF00F5F0404FEA3000EF
:1015500018BF41F000415FEA6C5C00F02980BCF1EB
:10156000FF3F08BF40F080407047130C06BF1204D5
:101570004FF0100C4FF0000C130E04BF12020CF1D0
:10158000080C130F04BF12010CF1040C930F04BFDD
:1015900092000CF1020CD30F04BF52000CF1010CAD
:1015A00011464FF00002A0F11F00A0EB0C007047A5
:1015B00011F0004F08BF704731F000413FF4D5AF44
:1015C0000B0C06BF09044FF0100C4FF0000C0B0E73
:1015D00004BF09020CF1080C0B0F04BF09010CF148
:1015E000040C8B0F04BF89000CF1020CCB0F04BF5D
:1015F00049000CF1010CCCF12003A0EB0C0022FA05
:1016000003F302FA0CF241EA030100F10100704712
:1016100020F07F4C80EA030023F07F47ACEB070308
:1016200003F57C5300F0004003F1FF032DE98049EE
:101630004FEA154B09B44FEA144325EA0B4E24EA4E
:1016400003480FF2042606EB132749083E785FEAA9
:10165000320203FB0667C7F5000707FB06F64FEAF1
:1016600054374FEAD64606F1020607FB066CCCF16A
:10167000005C4FEA1C472CEA074C07FB06F40CFB06
:1016800006F504EB15464FEA961634BF00204FF0DE
:1016900000404FEAD13706FB07FC4FEA1C4C0CFB1D
:1016A0000BF7D21B03FB0CF761EB07010CFB0EF7EA
:1016B000B0EB074072EB17420CFB08F734BFA2EB0C
:1016C0000742B2EB074261EB17414FEA0C444FEA85
:1016D000910706FB07FC4FEA1C4C0CFB0BF7B0EB29
:1016E000C74072EB573203FB0CF734BFA2EBC74283
:1016F000B2EBC74261EB57310CFB0EF7B0EBC70002
:1017000072EB57720CFB08F734BFA2EBC702B2EBC7
:10171000C70261EB5771039F4FEA816141EA921161
:1017200004EBCC044FEAD1374FEA826206FB07FC98
:1017300042EA90124FEA80604FEA1C4C0CFB0BF718
:10174000D21B03FB0CF761EB07010CFB0EF7B0EBB0
:10175000074072EB17420CFB08F734BFA2EB0742BD
:10176000B2EB074261EB17414FEA8C554FEA910704
:1017700004EB9C2406FB07FC4FEA1C4C0CFB0BF70C
:10178000B0EBC74072EB573203FB0CF734BFA2EB50
:10179000C742B2EBC74261EB57310CFB0EF7B0EB1F
:1017A000C70072EB57720CFB08F734BFA2EBC702FD
:1017B000B2EBC70261EB577115EB4C254FEA816123
:1017C00041EA92114FEA82624FEAD13742EA90121F
:1017D00006FB07FC44F100044FEA80604FEA1C4C12
:1017E0000CFB0BF7D21B03FB0CF761EB07010CFBA7
:1017F0000EF7B0EB074072EB17420CFB08F734BF53
:10180000A2EB0742B2EB074261EB174115EB1C1547
:101810004FEA813141EA92414FEA823242EA9042F4
:101820004FEA80304FEA0C7644F1000448EA034363
:101830004EEA0B484FF0000EB2EB080C71EB0307B9
:1018400024BF624639464EEB0E0E4FF0000B0018D7
:10185000524149414BEB0B0BB2EB080C71EB030708
:101860007BF1000B24BF624639464EEB0E0E4FF063
:10187000000B0018524149414BEB0B0BB2EB080C2B
:1018800071EB03077BF1000B24BF624639464EEB38
:101890000E0E51EA020718BF46F0010616EB0E764F
:1018A00055F1000254F1000103D5BDE88901BDE8FE
:1018B0000088BDE88901BDE80048B619524141EBF6
:1018C0000101A3F10103704780807F7E7D7C7B7ADC
:1018D0007978777676757473727171706F6E6E6DDC
:1018E0006C6C6B6A6A696868676666656464636382
:1018F00062616160605F5F5E5E5D5D5C5C5B5B5A08
:101900005A59595858575756565555555454535374
:1019100052525251515050504F4F4F4E4E4D4D4DCF
:101920004C4C4C4B4B4B4A4A4A494949484848471A
:101930004747474646464545454444444443434358
:101940004342424242414141002B9C4630D4770001
:101950002BD01CB54FEA370703B44FF010004FF0FF
:101960001001BAF1000F06D0BCF1000FDCBF40F04F
:10197000080040F008014FF000000FBCBDE8104027
:101980000BF1010BBBF1010F08BF5FEA170722BF84
:1019900012F1010211F101014FF0004143F1000386
:1019A00000F0004043EA00007047F9D35708D0E741
:1019B00046EA064613F1400F4FEA16461FDD13F1C3
:1019C000200FDFBF16430A46002120335B42BED002
:1019D000C3F1200746EA064602FA07F74FEA164621
:1019E00046EA0706C3F1200722FA03F201FA07F7D5
:1019F00021FA03F14FF0000342EA0702A7E746EAA3
:101A0000020646EA06464FEA164646EA0106BCBF0B
:101A100046EA0646360C4FF000034FF000024FF046
:101A2000000194E72DE9804C9A46934670B491E802
:101A3000380007C831EA400C48BF34EA430C03D5EC
:101A4000FFF7E6FDFFF780FFF0BCBDE8008C2DE955
:101A5000804C9A46934670B491E8380007C810F05D
:101A6000804F08BF13F0804F03D100F005F8FFF757
:101A70006BFFF0BCBDE8008C20F07F4780EA0300DC
:101A800023F07F4C07EB0C03A3F57C5300F00040E0
:101A9000A3F1FE0392F0000F00F0B38095F0000F69
:101AA00000F077802DE901494FEA11404FEA1446D2
:101AB00021EA004800FB06FC24EA064708FB06F67C
:101AC00007FB08F800FB07F718EB06484CEB164C31
:101AD0004FEA124B18EB07484FEA15464CEB1740FC
:101AE00022EA0B4E0BFB06FC25EA06470EFB06F628
:101AF00007FB0EFE0BFB07F71EEB064E4CEB164CDE
:101B00004FF000061EEB074E4CEB174B18EB0B0883
:101B100040F1000018EB0E0B58EB000840F10000FC
:101B20008F1A4FF000013CBFC943661B14BFB5EBD1
:101B3000040C00213CBFC943F61B4FEA17444EEA90
:101B40008E0E27EA04454FEA1C4704FB07622CEA85
:101B5000074C05FB07F70CFB05F604FB0CFC16EB2A
:101B6000074642EB174216EB0C4642EB1C421BEBBE
:101B7000060658EB0202414146EA9E0601D5BDE841
:101B80000189B619524141EB0101A3F10103BDE8FE
:101B900001894FEA14454FEA114724EA054621EA34
:101BA000074C05FB07F406FB07F70CFB06F105FBEA
:101BB0000CFC11EB074144EB17444FEA124711EBC1
:101BC0000C4144EB1C4422EA074C05FB07F206FBE0
:101BD00007F70CFB06F605FB0CFC16EB074642EB81
:101BE000174216EB0C4642EB1C456A1854F10001F3
:101BF00048BF7047B619524141EB0101A3F10103FF
:101C0000704795F0000F37D04FEA11424FEA144762
:101C100021EA024624EA074C02FB07F106FB07F71C
:101C20000CFB06F402FB0CFC14EB074441EB1741E0
:101C30004FEA154714EB0C4441EB1C4125EA074CD5
:101C400002FB07F506FB07F70CFB06F602FB0CFC94
:101C500016EB074645EB174516EB0C4645EB1C42C9
:101C6000121951F1000148BF7047B619524141EBBA
:101C70000101A3F1010370474FEA14454FEA1147F0
:101C800024EA054621EA074C05FB07F106FB07F7A6
:101C90000CFB06F24FF0000605FB0CFC12EB0742B2
:101CA00041EB174112EB0C4251EB1C4148BF70470E
:101CB000921841EB0101A3F10103704721B1826841
:101CC00042F00102826003E0826822F00102826039
:101CD0007047000000B587B000F032FB01214802D8
:101CE00001F090FB0121042001F06CFB7F20ADF896
:101CF000040004208DF8070001A9294801F005F827
:101D00004FF4804001F052FB0020029001208DF83A
:101D10000C008DF80D004FF4602004900020059019
:101D200005208DF8180002A91E4800F075F805235B
:101D3000012200211B4800F097F80523022201210F
:101D4000184800F091F8052303220221154800F0FD
:101D50008BF8052304220321124800F085F805239F
:101D60001A4604210F4800F07FF801210D4800F0C9
:101D70001BF801210B48FFF7A1FF0A4800F0D0F83B
:101D8000084800F0DDF800BF064800F03BF80028E6
:101D9000FAD10121034800F0C8F807B000BD0000E7
:101DA000000801400024014021B1826842F48072A1
:101DB000826003E0826822F480728260704730B5EE
:101DC00002461161022008E0C0F1050552F82550D5
:101DD00014692C441461441CE0B20528F4DD052488
:101DE0001069B0FBF4F01061108A83B2002005E0A6
:101DF00052F82050441E42F82450401C0528F7DBBE
:101E0000184630BD014600208A6802F004020AB17B
:101E1000012000E00020704730B50246002000237A
:101E200050680F4C20400D790C6844EA052420438B
:101E3000506090680B4C2040D1E902542C434D79FE
:101E400044EA450420439060D06A20F470000C7C82
:101E5000641EE4B2234340EA0350D06230BD000068
:101E6000FFFEF0FFFDF7F1FFF0B504460D46002040
:101E70000021092D11DDE068A5F10A0606EB4607F1
:101E8000072606FA07F18843A5F10A0606EB46067F
:101E900003FA06F10843E0600CE0206905EB450712
:101EA000072606FA07F1884305EB450603FA06F113
:101EB00008432061072A0FDA606B561E06EB86077F
:101EC0001F2606FA07F18843561E06EB860605FA1A
:101ED00006F10843606322E00D2A0FDA206BD61F5B
:101EE00006EB86071F2606FA07F18843D61F06EB86
:101EF000860605FA06F10843206310E0E06AA2F1C5
:101F00000D0606EB86071F2606FA07F18843A2F1A5
:101F10000D0606EB860605FA06F10843E062F0BD01
:101F2000816841F008018160704721B1826842F404
:101F3000A002826003E0826822F4A00282607047FF
:101F4000816841F004018160704700BFFEE7000036
:101F500010B50446082C51D2DFE804F050040F1AE3
:101F600025303B4663214FF4657002F0B7F94FF41A
:101F7000E571234802F07FFA40E063214FF44C7092
:101F800002F0ACF94FF4CC711D4802F074FA35E060
:101F9000632140F2D72002F0A1F940F26B111848FA
:101FA00002F069FA2AE0632140F2BA2002F096F9C1
:101FB00040F25D11124802F05EFA1FE0632140F228
:101FC000632002F08BF94FF4E5710D4802F055FAE9
:101FD00014E063214FF4087002F080F94FF4887127
:101FE000074802F048FA09E0632140F2E51002F0E8
:101FF00075F9F221024802F03EFA00BF00BF10BDA1
:10200000000400400146CAB20B1243EA02207047A6
:1020100008B50020009022E19748008800F00F00EA
:10202000964908700846007800287CD194480068DA
:10203000944908800846008800F0300092490880E2
:102040009048008800F440508E4908808C49096807
:102050004BF6BF7201EA020080F4005080F02000CD
:1020600040F4004141F08001854A116082480088B7
:1020700000F0100090BB1046006848F60F71084051
:102080001146086000F068FF7D4909684BF6BF7291
:1020900001EA02007B49098801F4805109B180F40A
:1020A00080507849098801F4005109B180F400504A
:1020B0007549098801F0100109B180F010007249DA
:1020C000098801F0200109B180F0200081B241F4BB
:1020D000004141F080016A4A116008BDFFE768488D
:1020E000006880B20090BDF8000000F40060B0B35A
:1020F00063480068C0F30E0048F68F7108406049DD
:10210000086001F02FFD5E4909684BF6BF7201EAD5
:1021100002005C49098801F4805109B180F48050C3
:102120005849098800E056E001F4005109B180F4F3
:1021300000505549098801F0100109B180F01000E4
:102140005149098801F0200109B180F0200081B2D5
:1021500041F4004141F08001494A1160BDE7FFE7C9
:10216000BDF8000000F40040002878D04448006822
:10217000C0F30E0048F68F7108404149086001F035
:1021800071F83F4909684BF6BF7201EA02003D4908
:10219000098801F4805109B180F4805039490988D7
:1021A00001F4005109B180F400503749098801F069
:1021B000100109B180F010003349098801F02001B5
:1021C00009B180F0200081B241F4004141F080016A
:1021D0002B4A116081E7294800782C4901EB8000E7
:1021E000D0F8000C80B20090BDF8000000F4004070
:1021F000C0B12248007801EB8000D0F8000CC0F399
:102200000E0048F68F7108401C4909781F4A02EBFE
:102210008101C1F8000C19490978491E1C4A52F87D
:1022200021008047BDF8000000F08000B8B11348DD
:102230000078164901EB8000D0F8000C48F60F71C9
:1022400008400E490978114A02EB8101C1F8000CDF
:102250000A490978491E0F4A52F821008047084868
:102260004430006880B20449088000F4004000282F
:102270007FF4D2AE00BF30E794000020540000206D
:10228000005C0040680000206A0000200050004010
:10229000BC000020A00000200B4A02EB8001D1F816
:1022A000001C01F4804171B102EB8001D1F8001CE7
:1022B00048F68F7211404CF280021143024B03EB3F
:1022C0008002C2F8001C7047005000400B4A02EB2D
:1022D0008001D1F8001C01F0400171B102EB8001D6
:1022E000D1F8001C48F68F72114048F2C002114329
:1022F000024B03EB8002C2F8001C70470050004004
:10230000084A02EB8001D1F8001C48F68F621140A8
:1023100048F280021143034B03EB8002C2F8001C19
:10232000704700000050004021B1026842F00102F5
:10233000026004E002684FF6FE731A4002607047C4
:1023400000B58BB00121084601F03CF8144800F0BC
:102350002DF81448009014480190002002900A9033
:1023600005200390002004908020059040000690F6
:1023700080000790202008900002099000200A9019
:102380006946074800F0C1F801220221044800F024
:10239000B3F801210248FFF7C7FF0BB000BD0000F2
:1023A000080002404C2401400A06002001684FF654
:1023B000FE72114001600021016041608160C160D6
:1023C0004B49884208D14A490839496841F00F0110
:1023D000474A083A51608AE045491431884208D199
:1023E00043490839496841F0F001414A083A5160CF
:1023F0007DE03F492831884208D13D490839496884
:1024000041F470613A4A083A516070E038493C3111
:10241000884208D136490839496841F47041344A44
:10242000083A516063E032495031884208D130495E
:102430000839496841F470212D4A083A516056E044
:102440002B496431884208D129490839496841F447
:102450007001274A083A516049E02549783188429D
:1024600008D123490839496841F07061204A083A87
:1024700051603CE01F49884206D1011F096841F0C4
:102480000F01021F116032E01A491431884208D14D
:102490001849091F096841F0F001164A121F11601E
:1024A00025E014492831884208D11249091F0968DA
:1024B00041F470610F4A121F116018E00D493C3160
:1024C000884208D10B49091F096841F47041094A43
:1024D000121F11600BE007495031884207D10549AE
:1024E000091F096841F47021024A121F11607047E8
:1024F00008000240080402401AB103680B4303605D
:1025000002E003688B430360704710B50022026845
:1025100047F6F0739A430C6A8B6823430C69234394
:102520004C6923438C692343CC6923434C6A23437E
:102530008C6A23431A430260CB6843600B68836054
:102540004B68C36010BD00002DE9F04728480068C3
:1025500000F110052E8826480068077AD6B9042FA6
:1025600018D12448007801280FD1002122480068A2
:1025700080B2801C214A42F8101030202049088087
:1025800000BF00201B49087003E0072710201C49EA
:10259000088027E0AC88A64201D8042000E0022091
:1025A0000746B44200D93446A0B2A968884780469D
:1025B000002000F065FC8146A2B24946404602F088
:1025C00067FBA1B2002001F0F5F92888001B2880E4
:1025D0006888204468803020094908800002094941
:1025E000088000BF024909680F72BDE8F08700004B
:1025F0005800002050000020505C00400060004067
:102600006A000020680000202DE9F0412848006899
:1026100000F110042688A068C0B1BEB1A588B542FB
:1026200000D93546A8B2A168884707462088401BD4
:102630002080608828446080002000F0FFFB8046F6
:10264000AAB24146384600F035FE00BF208850B19E
:102650004FF44050174908800021084601F0AAF9BC
:102660003020154908802088A188884204DB032097
:102670000F490968087218E02088002804DD052049
:102680000B490968087210E0208870B906200849D3
:102690000968087200210948006880B2801C084A55
:1026A00042F81010302004490880BDE8F081000095
:1026B00058000020680000206A000020505C0040A4
:1026C000006000402DE9F84F9B48006845780027DE
:1026D000BA46062D1BD198480068007800F07F00AC
:1026E000002813D1944909688878012803D19349B7
:1026F0000968CF690AE0022803D1904909680F6A86
:1027000004E0032802D18D4909684F6A94E0002D46
:1027100064D189480068408800285FD186480068F5
:10272000C08802285AD1844800680079002855D111
:1027300081480068007800F07F0028B97E48006872
:10274000808808B97E4F77E07B480068007800F009
:102750007F00012810D178490968487977490968CC
:102760008A6900219047002866D173480068807A02
:10277000002861D0724F5FE06F480068007800F079
:102780007F00022858D16C480068407900F00F069D
:1027900069480068407900F070096748006840792E
:1027A00000F0800038B1674901EB8600D0F8000CDA
:1027B00000F0300806E0634901EB8600D0F8000C19
:1027C00000F4405860480078B04235D9B9F1000FA4
:1027D00032D1B8F1000F2FD0594F2DE0082D07D17D
:1027E00055480068007800F07F0028BB574F23E071
:1027F0000A2D21D150480068007800F07F000128A0
:102800001AD14D480068807AB0B14B4800684088C2
:1028100090B949480068007970B947480068C08895
:10282000012809D1444909684879444909688A69F5
:102830000021904700B9464F57B13F480068A0F8C3
:1028400012A03D48006887610020B84700240FE0CF
:10285000394A12685078394A126811698847044623
:10286000032C05D10920344909680872BDE8F88FA6
:1028700031480068008A4FF6FF71884204D1092070
:102880002D4909680872F1E7022C03D02A48006834
:10289000008A20B90820284909680872E6E7264816
:1028A0000068007800F08000E0B323480068C0882A
:1028B000009021480068008A0099884204D91E4986
:1028C00000980968088223E01B480068008A1A49BA
:1028D0000968C98888421BDA17480068008A1749C6
:1028E000096891F82C10884203DA00201949087011
:1028F0000EE011480068008A1049096891F82C1010
:1029000090FBF1F201FB120010B90120114908708F
:102910000A48006890F82C10074800688182FFF789
:1029200013FE07E0FFE7032003490968087200036C
:102930000949088000BF99E7580000205C0000208A
:10294000053E000800500040E4000020893D0008DA
:10295000D93D000850000020680000207047002189
:1029600009E0002201E0531C9AB241F2B0239A42DE
:10297000F9DB4B1C99B28142F3DB704770B52248FA
:10298000B0F802042049B1F80014884200D170BDAB
:102990001D48B0F802041C49B1F80014884208DA56
:1029A0001948B0F800041849B1F80214401A84B26A
:1029B00005E01548B0F80204C0F5806084B2402CF0
:1029C00000DD40241048B0F80254B0F8020420445E
:1029D0000D49A1F802040846B0F80204B0F5806F72
:1029E00002DB0020A1F80204074948192246C02151
:1029F00002F04EF92146012000F0DCFF012001F039
:102A000007F800BFC3E700000007002010B5074922
:102A1000032002F09FF884B2E1B2054B054A034857
:102A200002F0B0F8032000F09BFF10BD221300203D
:102A30008F0000208C0000200149086070470000D2
:102A400014040140002123498279002A3AD00A4621
:102A5000126803689A430B461A600A1D12680368DD
:102A60009A430B1D1A60027911440A6803681A43DD
:102A70000A60184A0832126803689A43154B0833F3
:102A80001A601A1D126803689A43124B0C331A60BD
:102A90004279102A0ED11A1F126803681A430D4B8F
:102AA00008331A601A1D126803681A43094B0C3365
:102AB0001A600DE00749427911440A6803681A4315
:102AC0000A6005E0027911440A6803689A430A60C3
:102AD000704700000004014010B503A0FDF70EFC94
:102AE00003200849086010BD75736220656E746527
:102AF00072206C6F7720706F776572206D6F6465E0
:102B00000D0A00006C010020F3B581B00D460024D1
:102B10000026002000900427019800F075F8064672
:102B200000F0D4F800BF13E010494A1402FB04106F
:102B300000F020F80746012D09D1611C684600F01D
:102B400043FA684600F078FE09A000F075FE641CA8
:102B5000B44201D2042FE7D000F04CF8B44201D1C6
:102B6000042F01D00020FEBD0120FCE700800008FA
:102B70004000000030B5044604254FF4302000F03A
:102B8000B1F80546042D17D10C48006940F0020049
:102B90000A49086108464461006940F04000086144
:102BA0004FF4302000F09EF805460448006941F6D5
:102BB000FD71084001490861284630BD00200240EF
:102BC00004200B49C96801F0010109B101200EE0A0
:102BD0000749C96801F0040109B1022007E004496E
:102BE000C96801F0100109B1032000E0042070471A
:102BF000002002400348006940F08000014908615C
:102C0000704700000020024001B500200099C1F388
:102C100009021AB1012202EB912000E0880A08BDE6
:102C200070B504460D460426F00200F05BF8064637
:102C3000042E11D10948006940F0010007490861DC
:102C40002580F00200F04EF806460448006941F67F
:102C5000FE71084001490861304670BD0020024005
:102C600078B506460C46042500200090E80200F0E6
:102C700039F80546042D24D11348006940F00100BD
:102C8000114908613480E80200F02CF80546042D53
:102C900010D1B01C0090200C00990880E80200F0D0
:102CA00021F805460848006941F6FE7108400649CA
:102CB000086106E00448006941F6FE7108400249D7
:102CC0000861284678BD0000002002400248034900
:102CD0004860034848607047230167450020024070
:102CE000AB89EFCD00B502460423FFF769FF034629
:102CF00003E0FFF765FF0346521E012B01D1002AB6
:102D0000F7D102B90523184600BD2DE9F04102466E
:102D100000250026002000230024002791F803C08E
:102D20000CF00F0591F803C00CF0100CBCF1000F73
:102D300003D091F802C04CEA050591F800C0BCF13F
:102D4000000F31D0146800202BE04FF0010C0CFA7A
:102D500000F3B1F800C00CEA03069E4220D18300C4
:102D60004FF00F0C0CFA03F7BC4305FA03FC4CEAD6
:102D7000040491F803C0BCF1280F06D14FF0010CF8
:102D80000CFA00FCC2F814C00AE091F803C0BCF1D0
:102D9000480F05D14FF0010C0CFA00FCC2F810C02E
:102DA000401C0828D1D31460B1F800C0BCF1FF0F5B
:102DB00034DD546800202EE000F1080C4FF00108CB
:102DC00008FA0CF3B1F800C00CEA03069E4221D1C8
:102DD00083004FF00F0C0CFA03F7BC4305FA03FC19
:102DE0004CEA040491F803C0BCF1280F05D100F1AE
:102DF000080C08FA0CF8C2F8148091F803C0BCF172
:102E0000480F07D100F1080C4FF0010808FA0CF840
:102E1000C2F81080401C0828CED35460BDE8F08171
:102E20000246002093680B400BB1012000E0002017
:102E300070474161704701617047000001460548D5
:102E4000006880B200EBC100001D034A32F8100098
:102E500080B27047505C0040006000400146064868
:102E6000006880B200EBC100801D044A32F81000F7
:102E7000C0F3090070470000505C00400060004053
:102E800001460548006880B200EBC100034A32F8F1
:102E9000100080B270470000505C004000600040AD
:102EA00070B50A480468001D0568001D06683444B2
:102EB00054B108220649204600F0B2F80422044921
:102EC0001031284600F0ACF870BD0000E8F7FF1F95
:102ED0007200002000BFFEE710B5154800681549D4
:102EE0000840B0F1005F1CD1002001F0F5FD4FF467
:102EF0002F7002F0B5F900204FF0E021086172B6A2
:102F00000B4840680C490860084600680B49086097
:102F100007490868FDF7B7F90848006880470020AE
:102F200010BD07A002F0FCFB4FF0FF30F8E70000F7
:102F3000008000080000FE2F8C0100208801002086
:102F40000D0A2052756E20746F20617070206572BA
:102F5000726F722E0D0A000010B518480068047ACE
:102F6000022C01D0042C05D1FFF7EEFA13480068BB
:102F7000047A1CE0062C19D1104800684078052816
:102F80000ED10E480068007800F07F0040B90B4970
:102F90000968C87800F064FC09490968086A804734
:102FA0000849096888688047082400E00824034924
:102FB00009680C7200F094F910BD00005800002060
:102FC000640000205C000020F0B5144A00250024B5
:102FD000002320E0B1FBF2F6303606F0FF0C2E465F
:102FE0006D1C00F806C0B1FBF2F602FB16110A26B2
:102FF000B2FBF6F26E1E865D302E01D1012600E096
:1030000000260CB9012700E000273E400EB1002544
:1030100000E0641C5B1C0A2BDCD3F0BD00CA9A3BA9
:1030200030B50B46002100BF16E00A24B4EB107F38
:1030300005D9302404EB107403F8114005E0412455
:1030400004EB10740A3C03F81140000100254C0009
:10305000641C1D554C1CE1B29142E6DB30BD000002
:1030600010B5074C07A0FDF749F9A07A18B1052063
:103070000A49086002E001200849086010BD00000C
:10308000E40600206C65617665206C6F7720706FB8
:10309000776572206D6F64650D0A00006C01002079
:1030A00000BFFEE77047704770B5002100230F2274
:1030B000C47804B3154C246804F4E064C4F5E064F7
:1030C000210AC1F10403CA40447804FA03F1847868
:1030D0001440214309010E4C0678A155047804F0F0
:1030E0001F050124AC4005786D11AD0005F1E02508
:1030F000C5F8004109E0047804F01F050124AC4044
:10310000044D0678761145F8264070BD0CED00E0C0
:1031100000E400E080E100E002490143024A11605E
:10312000704700000000FA050CED00E070B50226C3
:1031300047480068447846480068007800F07F00FF
:10314000002844D1092C03D100F0DCFE06465FE0E4
:10315000052C14D13E480068C0787F280BDC3C4821
:103160000068807838B93A480068808818B93848CB
:103170000068807A08B1082565E0002648E0032C45
:103180000ED133480068C078012807D13048006864
:10319000808818B900F0DAFE064639E0022637E0EA
:1031A000012C35D12A480068C07801280DD1284863
:1031B0000068808848B926480068407A00F02000FE
:1031C00018B100F02BFD064622E0022620E0204840
:1031D0000068007800F07F00012805D10B2C17D182
:1031E00000F030FF064613E019480068007800F050
:1031F0007F0002280BD1012C03D100F00FFD064601
:1032000006E0032C04D100F0B5FE064600E00226DD
:103210004EB1E0B20F4A1268516988470646032E44
:1032200001D109250FE00EB108250CE0062500218B
:103230000948006880B2801C084A42F8101030200B
:103240000749088000BF024909680D7270BD00007F
:10325000580000205C000020505C004000600040EE
:103260006A00002010B511480068047A022C01D0D1
:10327000042C01D1082412E0032C01D0052C05D127
:10328000FFF7C2F909480068047A08E0072C05D165
:1032900007490968C8688047082400E008240349F2
:1032A00009680C7200F01CF810BD000058000020E6
:1032B0005C000020F0B5561C7510074E06EB41046B
:1032C0002B4605E034F8047B20F8017B401C5B1E94
:1032D000002BF7D1F0BD00000060004070470000F7
:1032E00010B50D4890F82C10002000F0F3FA0B48B0
:1032F0000068007A082805D140020949088010209A
:103300000849088005480068007A092801D1012091
:1033100010BD0020FCE70000E8000020580000205D
:10332000680000206A00002008B50121102000F08C
:1033300069F84FF40040ADF8000003208DF802005A
:1033400010208DF8030069460748FFF7DEFC4FF4B4
:103350008040ADF8000048208DF80300694602481F
:10336000FFF7D3FC08BD00000010014010B501209C
:1033700001F05AFA01240B48046000200A49088031
:1033800008460088074908600020091D08604FF4BE
:10339000E05005490880084600880249086000207E
:1033A00010BD0000405C004062000020014600208B
:1033B000034A506820F440400843506070470000C2
:1033C0000010024029B1064A52690243044B5A6177
:1033D00004E0034A52698243014B5A61704700007E
:1033E0000010024029B1064AD2690243044BDA6157
:1033F00004E0034AD2698243014BDA61704700005E
:103400000010024029B1064A92690243044B9A61B6
:1034100004E0034A92698243014B9A6170470000BD
:103420000010024030B500210022002400232D4D61
:103430006D6805F00C0121B1042905D0082923D1BC
:1034400005E0294D056022E0274D05601FE0254D70
:103450006D6805F47012234D6D6805F48034022503
:1034600005EB92421CB9214D554305600BE01D4D03
:103470006D6805F400351DB11C4D5543056002E033
:10348000194D5543056002E0174D056000BF00BFB0
:10349000144D6D6805F0F0010909154D6B5C056868
:1034A000DD4045600F4D6D6805F4E061090A104D7F
:1034B0006B5C4568DD4085600A4D6D6805F46051C0
:1034C000C90A0B4D6B5C4568DD40C560054D6D68F4
:1034D00005F44041890B074D6B5CC568B5FBF3F5FE
:1034E000056130BD0010024000127A0000093D0065
:1034F0002D0000203D0000200149086070470000B9
:10350000D800424270B505460C46164601F0DCFE76
:10351000002842D1206022480078182817D006DC05
:10352000012809D002280AD004281FD10BE0412825
:1035300019D061281AD117E08020206019E04FF4DB
:103540008060206015E000202060022070BD1448DB
:103550000078182804D14FF0FF3020600020F5E7F4
:103560004FF0FF30F2E700BF0120EFE74FF0FF30F0
:10357000ECE700BF2068421D09492846FCF7E9FF37
:103580006978A87880F0FF00814202D04FF0FF30C8
:10359000DCE700F007F80020D8E74FF0FF30D5E770
:1035A000090F0020FF200149087070478F0000209C
:1035B00070B50546072D01D02E4805702D480078BE
:1035C00008284ED2DFE800F004111A202B384E4FA5
:1035D0002948006828B900F053F8062025490870EA
:1035E00002E005202349087041E000F049F804207A
:1035F0002049087001202049086038E002201D4958
:1036000048700320087032E01A484078401E19497B
:1036100048700846407808B90420087027E0174829
:10362000006884B244F01004144804600520114975
:1036300008700A2048701AE00E484078401E0D4974
:1036400048700846407858B90C48006884B224F0A5
:1036500010040A480460062008700020064908602B
:1036600005E000BF00BF06200249087000BF00BF90
:1036700070BD00007101002074010020405C00401A
:1036800010B50748006884B224F0040404480460BC
:10369000FFF7E6FC4FF43F400149086010BD000011
:1036A000405C004010B50948006805280CD1084866
:1036B00001680068401C064A1060052904D10020FA
:1036C00011460860FFF75AF910BD00006C01002098
:1036D0009000002030B503460C461546002207E056
:1036E000184600F008F824F812009B1C501C82B207
:1036F000AA42F5DB30BD0146088870472DE9F05F2E
:1037000080468A461746B8F1006F02D3B8F1805F51
:1037100001D3BDE8F09FFFF7D9FAA8F1006B4FEA9B
:103720009B25CBF34809C9F50074A74200DC3C4651
:103730004DE04FF0006101EB85208A142749FFF727
:10374000C9FF00260BE009EB0600244931F8100000
:103750004FF6FF71884200D003E0701C86B2A6428B
:10376000F1DB00BFA6421BDA4FF0006101EB8520C0
:10377000FFF700FA002608E03AF8160006EB090108
:10378000164A22F81100701C86B2A642F4DB4FF0F4
:10379000006101EB85208A14104900F021F804E053
:1037A00022465146404600F01BF8A74200D10FE0E8
:1037B0006D1C4FF000090AEB440AA044381B87B285
:1037C000B7F5007F02DD4FF4007400E03C46B0E73F
:1037D00000BFFFF70FFA00BF9BE700008413002033
:1037E0002DE9F04105460E461746002407E036F85D
:1037F00014102846FFF714FAAD1C601C84B2BC42BA
:10380000F5DBBDE8F081704710B50446204601F0B5
:1038100025FA002010BD000010B5044621460548D9
:1038200000F0F7FF00BF8021024800F025FF0028CC
:10383000F9D010BD0038014010B5044603E02078EF
:10384000FFF7EAFF641C20780028F8D110BD0000C3
:103850004FF6F8710140014A11607047505C00401A
:1038600030B501460F4B1A78002014E003060E4CC9
:1038700004EB9353D3F8003C48F68F74234048F28E
:1038800080042343C4B223430406074D05EB94543C
:10389000C4F8003C401C9042E8D341F08003034C44
:1038A000236030BDE4000020005000404C5C00402C
:1038B00010B54A105300054A126892B202EBC002DA
:1038C000121D034C44F8123010BD0000505C004043
:1038D0000060004010B502460F48006880B200EB5F
:1038E000C200801D0D4C04EB40033E290BDD481146
:1038F00001F01F040CB9441EA0B24FF4004444EA86
:1039000080241C6007E0481001F001040CB1441C45
:10391000A0B284021C6010BD505C004000600040FA
:1039200030B50E4C04EB8003D3F8003C4BF68F749B
:1039300003EA040201F480530BB182F4805201F4D3
:1039400000530BB182F4005242F4004343F0800371
:10395000024D05EB8004C4F8003C30BD005000402F
:1039600010B50B4B03EB8002D2F8002C4BF68F7393
:1039700002EA030181F4805181F4005141F40042D4
:1039800042F08002024C04EB8003C3F8002C10BD0F
:103990000050004010B54A105200044B1B689BB207
:1039A00003EBC003024C44F8132010BD505C0040F0
:1039B00000600040044A126892B202EBC002921CFE
:1039C000024B43F812107047505C0040006000400A
:1039D00030B50E4C04EB8003D3F8003C48F6BF74BE
:1039E00003EA040201F010030BB182F0100201F0AF
:1039F00020030BB182F0200242F4004343F0800325
:103A0000024D05EB8004C4F8003C30BD005000407E
:103A100010B50B4B03EB8002D2F8002C48F6BF73B5
:103A200002EA030181F0100181F0200141F400421B
:103A300042F08002024C04EB8003C3F8002C10BD5E
:103A40000050004010B5074B03EB8002D2F8002C69
:103A500048F68F131A400A43024C04EB8003C3F864
:103A6000002C10BD0050004010B500F001F810BD52
:103A70000CB50020019000903348006840F480307D
:103A80003149086000BF3048006800F40030009001
:103A90000198401C0190009818B90198B0F5A06FEA
:103AA000F1D12948006800F4003010B101200090E5
:103AB00001E0002000900098012843D123480068CD
:103AC00040F01000214908600846006820F003001B
:103AD00008600846006840F0020008601A48406824
:103AE000194948600846406848600846406840F404
:103AF000806048600846406820F47C1048600846B2
:103B0000406840F4E81048600846006840F0807063
:103B1000086000BF0C48006800F000700028F9D071
:103B20000948406820F0030007494860084640689B
:103B300040F00200486000BF0348406800F00C00FD
:103B40000828F9D10CBD00000010024000200240FE
:103B500010B50020FFF7D0FC0121C805FFF742FC9B
:103B600010BD000038B501242948006880B2001D4E
:103B7000284931F8100080B201EB4000009026483F
:103B80000068007A092832D0009800782249096834
:103B900008700098401C0090009800781E49096841
:103BA00048700098401C0090009800EB4400009082
:103BB000009931F8020B0091FEF724FA16490968C2
:103BC0004880009800EB44000090009931F8020B07
:103BD0000091FEF717FA104909688880009800EBF9
:103BE00044000090009800880B490968C8800120B3
:103BF00009490968087208480068C08810B9FFF7C9
:103C000095FA01E0FEF75EFDFFF76AFB38BD0000A4
:103C1000505C004000600040580000202DE9F04753
:103C200054480068007800F07F08B8F1000F0AD10E
:103C300050480068407A00F0DF004E490968487239
:103C40000020BDE8F087B8F1020F7CD14948006838
:103C5000408818B947480068007908B10220F0E7A9
:103C6000DFF8149143480068477927F080052C4617
:103C700040480068407900F0800038B13F4901EBCE
:103C80008400D0F8000C00F0300606E03B4901EB60
:103C90008400D0F8000C00F4405699F80000A842C7
:103CA00004D91EB133480068807A08B90220C8E7F9
:103CB00007F0800080B1314901EB8400D0F8000C9E
:103CC00000F0300010284BD1E0B2FEF7FFFAE0B26E
:103CD0003021FFF77DFE43E0284901EB8400D0F856
:103CE000000C00F44050B0F5805F39D1E4B9244AAB
:103CF00092F82C10E0B2FFF7EDFD204A02EB8401B0
:103D0000D1F8001C4BF68F7201EA020080F480505B
:103D100080F4005040F4004141F08001174B03EB68
:103D20008402C2F8001C1BE0E0B2FEF7B5FA134AA9
:103D300002EB8401D1F8001C4BF68F7201EA0200FD
:103D400080F4805000E011E080F4005040F4004125
:103D500041F08001094B03EB8402C2F8001C00BF54
:103D6000084909684869804700206AE700BF0220C7
:103D700067E7000058000020E400002000500040E9
:103D8000E80000206400002010B504462CB9012092
:103D9000064909680882002010BD054909680868BD
:103DA0008047024800680A30F6E70000580000200B
:103DB0006400002010B5024606480068438A32B904
:103DC0008888C01A034C24682082002010BD08682F
:103DD0001844FBE75800002010B504462CB9012018
:103DE000064909680882002010BD054909688868ED
:103DF0008047024800680C30F6E7000058000020B9
:103E00006400002010B504462CB902203949096825
:103E10000882002010BD002037490880354800681E
:103E2000007800F07F0018BB32490968487A00F03A
:103E3000200131B13049097841F002012E4A117058
:103E400005E02D49097801F0FD012B4A117000F0C1
:103E5000400131B12849097841F00101264A117029
:103E600005E02549097801F0FE01234A11703AE086
:103E700020480068007800F07F00012801D11E482A
:103E8000C8E71C480068007800F07F00022828D1AD
:103E9000184A1268517901F00F0001F080027AB1DE
:103EA000164B03EB8002D2F8002C02F03002102AED
:103EB00016D1114A127842F001020F4B1A700FE02E
:103EC0000E4B03EB8002D2F8002C02F44052B2F504
:103ED000805F05D1084A127842F00102064B1A7041
:103EE00001E0002096E70649096808698047024812
:103EF00090E70000580000204E00002000500040D5
:103F00006400002010B50E480068C0780D4949785B
:103F1000884213DC0A480068807878B9084800684D
:103F2000808858B906480068C078054909688872D1
:103F30000549096848688047002010BD0220FCE759
:103F400058000020E40000206400002010B507485D
:103F50000068407A40F0200004490968487204492A
:103F60000968C8698047002010BD00005800002083
:103F7000640000202DE9F0412E480068467926F0C3
:103F800080073C462B480068407900F0800038B13B
:103F9000294901EB8400D0F8000C00F0300506E060
:103FA000254901EB8400D0F8000C00F4405523486B
:103FB0000078A04208D91F480068408820B91DB188
:103FC0001C480068807A10B90220BDE8F08106F034
:103FD0008000A0B1184A02EB8401D1F8001C48F619
:103FE000BF7201EA020080F0100040F4004141F08D
:103FF0008001114B03EB8402C2F8001C14E00E4A4E
:1040000002EB8401D1F8001C4BF68F7201EA02002A
:1040100080F4805040F4004141F08001064B03EBF6
:104020008402C2F8001C00BF0549096888698047FE
:104030000020CAE75800002000500040E4000020A3
:104040006400002010B5174B1B68D978154B1B680E
:104050005879154B1B689A699047044611480068C7
:10406000807AE8B13CB90F480068007918B90D486A
:104070000068807808B1022010BD8CB90B4909682E
:10408000C868804707480068407906490968C872CF
:1040900004480068C0780349096808730020EBE70A
:1040A0000220E9E7580000205C00002064000020A6
:1040B00070B502460C4600210025002310783028F8
:1040C00043D15078782802D0507858283DD1907844
:1040D00008B9002070BD022130E0505C10B92360A7
:1040E00001252DE0505C412802DB505C46280BDDA9
:1040F000505C612802DB505C662805DD505C30288E
:1041000019DB505C392816DC505C302805DB505C2C
:10411000392802DC505C30380AE0505C412805DB6D
:10412000505C462802DC505C373801E0505C573860
:1041300000EB031301E0002502E0491C0B29CCD35E
:1041400000BF0B2934D3002532E000212AE0505C67
:1041500010B92360012527E0505C6B2802D0505C29
:104160004B2804D119B19B02236001251CE0505C4F
:104170006D2802D0505C4D2804D119B11B05236075
:10418000012511E0505C302809DB505C392806DC41
:10419000505C303803EB830600EB460301E000255A
:1041A00002E0491C0B29D2D300BF0B2900D3002504
:1041B00028468FE738B50025002000902148006888
:1041C00084B200BF09E0204901EB8500D0F8000C63
:1041D00080B21E4941F825006D1C082DF3D344F42C
:1041E00080641848046044F00104046024F0010471
:1041F000046000BF1348001D006800F480600028C0
:10420000F8D04FF6FF300F49091D0860002509E07E
:104210000E4850F8250080B20B4A02EB8501C1F828
:10422000000C6D1C082DF3D344F00804054804600D
:10423000006884B244F0040402480460FEF74CFCB9
:1042400038BD0000405C0040005000406413002076
:10425000042808D14FF0E021096941F004014FF032
:10426000E022116107E04FF0E021096921F004012B
:104270004FF0E022116170477047000010B51348FD
:10428000006840F001001149086008464068104984
:1042900008400E494860084600680E4908400B492E
:1042A00008600846006820F48020086008464068DE
:1042B00020F4FE0048604FF41F008860FFF7D4FB35
:1042C0004FF000600449086010BD0000001002407B
:1042D0000000FFF8FFFFF6FE08ED00E030B589B002
:1042E00004460D4601210220FFF77CF8012104203D
:1042F000FFF788F84020ADF8200018208DF8230043
:1043000003208DF8220008A91A48FEF7FEFCADF83C
:104310001840ADF814500020ADF81A00ADF81600A2
:1043200005A9154800F0ACF86020ADF804000120A4
:10433000ADF80600204604EBD071C1F34F01ADF893
:104340000A100220ADF80C0001A90B4800F03EF85D
:104350000121094800F02AF80821074800F082F8F6
:104360000121054800F00AF80121034800F012F885
:1043700009B030BD000801400004004021B10288AE
:1043800042F08002028004E002884FF67F731A40F8
:104390000280704721B1028842F00102028004E0ED
:1043A00002884FF6FE731A400280704731B1B0F8B0
:1043B000442042F40042A0F8442005E0B0F8442034
:1043C000C2F30E02A0F844207047000070B500242C
:1043D00000220023058C4FF6FE7635400584028CC2
:1043E0008388048B4FF68F752C40B51E2C400D88AA
:1043F0002C43751E2A400D892A434D882A43144DAB
:10440000A8420BD0134DA84208D0134DA84205D0A6
:10441000124DA84202D0124DA84213D14FF6F775A3
:104420002A404D892A434FF6FB752A408D882A433E
:104430004FF6FF652B404FF6FF552B408D892B43E0
:10444000CD892B4383800483CD888586028470BD0B
:10445000002C014000340140004001400044014074
:10446000004801400A460021018B4FF6F7731940BE
:104470001143018370478186704781877047000030
:10448000002202881D4B98420ED01D4B98420BD043
:10449000B0F1804F08D01B4B984205D01A4B984280
:1044A00002D01A4B984204D14FF68F731A404B88B2
:1044B0001A43174B984207D0164B984204D04FF638
:1044C000FF431A40CB881A4302808B8883850B8870
:1044D00003850A4B98420BD0094B984208D00E4BEB
:1044E000984205D00D4B984202D00D4B984201D115
:1044F0000B7A03860123838270470000002C014061
:10450000003401400004004000080040000C00405E
:1045100000100040001400400040014000440140F1
:104520000048014010B540F225511D4800F0B1F897
:1045300010B31B4800F068F9C4B21A48008800F4B0
:104540000040C8B91748008800F4804060B10A2CC8
:1045500003D000201349088020E01248008840F46E
:1045600000401049088019E00D2C06D10D48008844
:1045700040F480400B49088010E00A480088C0F3EE
:104580000D0009490C5407480088401C0549088063
:1045900008460088C72801DD0020088010BD000003
:1045A000003801404C0000201C06002021B1828907
:1045B00042F40052828104E082894DF6FF731A4072
:1045C0008281704710B500200E49A1F80204A1F8BD
:1045D00000040D4908800D4801790DA0FBF78EFEFF
:1045E0000A48417910A0FBF789FE0848817915A097
:1045F000FBF784FE0548016819A0FBF77FFE012048
:1046000010BD0000000700206C000020DC0000202E
:104610006C696E65636F64696E672E666F726D613B
:10462000743A25640D0A00006C696E65636F6469F5
:104630006E672E706172697479747970653A256459
:104640000D0A00006C696E65636F64696E672E64A5
:10465000617461747970653A25640D0A0000000088
:104660006C696E65636F64696E672E6269747261EE
:1046700074653A25640D0A0002460020B1F5007FFA
:1046800000D100BF13880B400BB1012000E00020D7
:10469000704770B50246002400230025002040F634
:1046A0006A16B14200D100BFC1F3421501F01F03E9
:1046B000012606FA03F3012D02D19689334006E064
:1046C000022D02D1168A334001E0968A33400C1243
:1046D000012606FA04F41688344013B10CB1012007
:1046E00000E0002070BDF0B5034600240026002540
:1046F000002040F66A17B94200D100BF1846C1F346
:10470000421401F01F06012707FA06F5012C01D11A
:104710000C3004E0022C01D1103000E014301AB14A
:1047200007682F43076002E00768AF430760F0BDEA
:104730002DE9F04786B005460E460024A24600BF8C
:10474000A1460027B08900B100BF2F462C8A4CF645
:10475000FF700440F08804432C82AC894EF6F310BD
:104760000440B08831890843718908430443AC810F
:10477000AC8A4FF6FF400440B0890443AC8201A8E4
:10478000FEF750FE1F48874202D1DDF810A001E07D
:10479000DDF80CA0A88900F4004040B10AEBCA0083
:1047A00000EB0A1031684900B0FBF1F807E00AEBB2
:1047B000CA0000EB0A1031688900B0FBF1F86420F0
:1047C000B8FBF0F004012009642101FB1089A889DD
:1047D00000F4004040B1322000EBC900B0FBF1F022
:1047E00000F00700044308E0322000EB09106421C8
:1047F000B0FBF1F000F00F0004432C8106B0BDE8DF
:10480000F08700000038014001468888C0F30800A6
:104810007047C1F308028280704710B54FF48020C2
:10482000FEF70AF910BD000010B504461CB104A043
:10483000FBF764FD02E008A0FBF760FD10BD00007F
:104840007573622070756C6C20757020656E616286
:104850006C650D0A000000007573622070756C6C49
:104860002075702064697361626C650D0A00000038
:1048700010B508480849086002200968087207480E
:104880000749086007480849086005490968086839
:10489000804710BDE406002058000020E8000020FA
:1048A0005C00002018010020640000200EB54FF4C9
:1048B0008020FEF7C1F84FF48020009008208DF88A
:1048C000050001208DF806006846FEF7BBF81420AD
:1048D0008DF8080001208DF8090000208DF80A00ED
:1048E00001208DF80B0002A8FEF7DEFB2A208DF8D0
:1048F000080000208DF8090002A8FEF7D5FB0EBDC8
:1049000010B588B0002469480068694908800846E5
:10491000008800F4007067490988084050B14FF6DC
:10492000FF506249086064480078401C6249087082
:10493000FEF7B8FE5E48008800F400405D49098833
:10494000084008B1FDF764FB5948008800F4806016
:1049500058490988084030B14FF6FF305349086084
:104960005649486880475248008800F40050514931
:104970000988084018B14DF6FF704C4908604C4852
:10498000008800F480504B490988084030B14EF649
:10499000FF70464908600020FEF70AFE4448008880
:1049A00000F4006043490988084060B14448007839
:1049B00010B1FFF7FFFB02E00220FEF7F9FD4FF216
:1049C000FF703A4908603A48008800F4807039491D
:1049D00009880840002866D04FF6FF603349086018
:1049E000081D006800F40040002856D035480068D3
:1049F000401C3449086008460068032850D92B48F9
:104A0000001F006800F00800002849D12748001F57
:104A1000006880B22C490860002408E02B4901EBB3
:104A20008400D0F8000C80B24DF82400641C082CDF
:104A3000F4D32548006840F0010023490860084687
:104A4000006880B21949091F08601F48006820F0FB
:104A500001001D4908600846006880B21349091F1B
:104A6000086000BF1148006800F480600028F9D099
:104A70004FF6FF300D490860002408E05DF824007F
:104A800080B2124A02EB8401C1F8000C641C082CAD
:104A9000F4D300200B49086002E0002009490860B7
:104AA0000720FEF785FD08B010BD0000445C004003
:104AB000940000206200002096000020E800002002
:104AC00070010020980000209C0000200050004051
:104AD00010B5FFF715FF10BD10B5044601210420E5
:104AE000FEF790FC3CB11048006880B220F0020054
:104AF0000D49086016E00C48006880B240F00200E2
:104B0000094908600948006820F47F2007490860C7
:104B10000846006840F44C30086089140348001FC0
:104B2000FEF787F910BD0000405C0040040801401A
:104B30000020064908604FF43F40054908800846B8
:104B400000880249091F086000207047445C00404B
:104B5000620000202DE9F04104460E46002504F0D5
:104B60007F00FEF77BF9054604F07F00FEF766F94B
:104B700007462A4639463046FEF79CFB2846BDE8E4
:104B8000F0810000F0B505460E4600245BE0295D8B
:104B900001290DD12E48008800F4004040B985203D
:104BA0002C4F38802A48008840F40040284F388035
:104BB00002290ED12648008800F4004048B940F28E
:104BC0000540244F38802248008840F40040204FA0
:104BD000388004290DD11E48008800F4004040B9F7
:104BE00001201C4F38801A48008840F40040184FBC
:104BF00038801748008800F4004010B3144800883B
:104C0000C0F30D00144F395411480088401C104F58
:104C1000388038460088C0F30D000E4F3F88B842F8
:104C20000BD10B480088C0F30D0010800020084F06
:104C30003880084F3880187003E000201080FF2073
:104C40001870601CC4B2B442A1DB0020F0BD0000AB
:104C50006C0000206E000020090F00200A49B1F806
:104C60000014094A50541146B1F80014491CA2F826
:104C700000141146B1F80014B1F5806F02D1002183
:104C8000A2F80014704700000007002000BFFEE7F4
:104C9000F0B5144604F1010C4FEA6C07DFF824C0AC
:104CA0000CEB41033D460AE00678401C90F800C03A
:104CB00046EA0C2223F8022B9B1C401C6D1E002D83
:104CC000F2D1F0BD0060004070B504460025212CF3
:104CD00008D112480068007800F07F0021280ED12A
:104CE0000F4D0CE0202C0AD10C480068007800F031
:104CF0007F00212800D10B4D20200B4908700DB9F1
:104D0000022070BD054800688561002103480068E5
:104D100041820020A8470020F3E70000580000204F
:104D2000554D0008E54E0008D800002010B5044697
:104D300002492046FFF73EF810BD00004401002064
:104D400010B5044602492046FFF734F810BD0000B4
:104D50003C010020014629B90820034A126810824C
:104D6000002070470148FCE758000020DC000020CC
:104D700070B5054606480068C478042C01DD0020A3
:104D800070BD044800EBC4012846FFF713F8F7E7AD
:104D9000580000204C0100200246002901DD0220BD
:104DA0007047012A01DD0220FAE70020F8E7000041
:104DB000014608480068007800F07F00212807D1EC
:104DC000022901D100207047222901D10020FAE7F1
:104DD0000220F8E75800002010B500203449096887
:104DE00088723448C07932490968487200203049D5
:104DF0000968C872FEF72CFD4FF400710020FEF721
:104E000021FE10210020FEF7E3FD40210020FEF7E7
:104E10004FFD80210020FEF7BDFD0020FDF770FA58
:104E2000254890F82C100020FEF754FD0020FEF7D6
:104E300097FD00210120FEF705FEC0210120FEF7AD
:104E4000A9FD20210120FEF7C3FD00210120FEF76E
:104E500067FD4FF4C0610220FEF7F4FD4FF480714E
:104E60000220FEF797FD00210220FEF759FD2021C8
:104E70000220FEF7ADFD00210320FEF7E3FD4FF415
:104E800088710320FEF714FD40210320FEF722FD68
:104E90004FF440510320FEF743FD00210320FEF7AD
:104EA00097FD0020FEF7DCFC01200449086010BDDE
:104EB00058000020CE570008E80000206C010020B8
:104EC0000348817A11B10521024A11607047000040
:104ED000E40600206C0100200420014908607047AE
:104EE0006C010020014629B90820034A126810828B
:104EF000002070470148FCE758000020DC0000203B
:104F000010B505480078202804D1FFF75BFB00208E
:104F10000149087010BD0000D80000207047000053
:104F200010B5FDF7BDFF0020054909688872FEF73E
:104F30001DFAFFF7FDFD00200249086010BD0000CA
:104F4000580000206C0100202DE9F04FADF22C4DEF
:104F50000646002001909D489D4908604FF480411D
:104F60009C48FDF75DFF38B9022000F079F94FF455
:104F700000419848FDF75DFF4320FEF745FC4FF0E8
:104F8000000BD8460020029000BF642000F068F9B2
:104F9000002700200390B14600BF642000F060F9B4
:104FA0004FF4801204A909A8FEF7ACFA20B1012839
:104FB00073D0022872D1C8E04FF000080498B0F115
:104FC000FF3F01D070B907E00620FEF71DFC00206E
:104FD0000DF22C4DBDE8F08F0620FEF715FC0120E8
:104FE0000390A7E09DF82500F9B2884203D0152070
:104FF000FEF70AFC9DE0002F58D19DF827000028FD
:105000004DD000250DF1270405E014F8012B2846AA
:105010006D1C71490A54207808B1FF2DF5DD00227E
:1050200028466D1C6C490A540025641C05E014F8E0
:10503000012B28466D1C05A90A542078202801D090
:10504000102DF4DB002228466D1C05A90A5401A985
:1050500005A8FFF72DF80198B0F5003F08DB1820F0
:10506000FEF7D2FB1820FEF7CFFB4FF0FF30AFE783
:1050700000210198FDF748FD40B91820FEF7C4FB58
:105080001820FEF7C1FB4FF0FF30A1E70620FEF726
:10509000BBFB4320FEF7B8FB48E04DE05CE0062098
:1050A000FEF7B2FB01200390834643E00DF1270198
:1050B0004846049AFBF74DFA484806604FF0000A4C
:1050C00027E0FDF703FE4548006801684048006896
:1050D000FDF7C6FDFDF78EFD3D48006800683F49BD
:1050E00009680968884208D01820FEF78DFB18204F
:1050F000FEF78AFB6FF001006AE735480068001D83
:105100003349086035480068001D344908600AF1D9
:10511000040A0498824506DA2C49019808442C496F
:1051200009688842CDD80620FEF76EFB7F1C01205F
:10513000029000BF00BF31E01820FEF765FB182089
:10514000FEF762FB6FF0020042E71520FEF75CFB02
:1051500001200390834621E00298002801DD08F138
:105160000108B8F1050F07DD1820FEF74DFB1820E8
:10517000FEF74AFB00202BE74320FEF745FB4FF4E8
:1051800080411448FDF74CFE38B9022000F068F861
:105190004FF400410F48FDF74CFE00BF00BF0398DD
:1051A00000283FF4FAAE00BF00BFBBF1000F3FF490
:1051B000ECAE0620FEF728FB4320FEF725FB062079
:1051C000FEF722FB00BF00BF019801E70080000846
:1051D0007801002000100140841700208001002089
:1051E000490050EAC12018BF04204A0D18BF40F002
:1051F000010040F2FF72B2EB515F08BF40F00200C5
:10520000012808BF0520704730380A2801D2012044
:1052100070470020704700BF7047000010B56FF066
:105220000400FFF715F80A4800680A49B0FBF1F0DE
:10523000094908700846007800EB4001C1EBC01036
:105240004FF6FF7101EAC0000449088010BD00005C
:105250000000002000127A004200002044000020DC
:105260000146114A12884A434FF0E0235A61002256
:105270009A611A46126942F001021A6100BF4FF0AA
:10528000E022106900F001021AB100F48032002A15
:10529000F5D04FF0E022126922F001024FF0E02336
:1052A0001A6100229A6170474400002000BF054A3D
:1052B000128802F04002002AF9D0C2B2014B1B1D35
:1052C0001A8070470038014001480078704700009C
:1052D0008F00002010B586B00024074801680191B6
:1052E0008088ADF8080005A101A8FBF777F900B99F
:1052F0000124204606B010BD2213002075706461A1
:105300007465000008B501210820FEF77BF8022033
:10531000ADF8000003208DF8020048208DF803004E
:1053200069460248FDF7F1FC08BD0000000C014091
:1053300008B50024FFF772FF00F064F9FFF7E2FF01
:10534000FDF7F2FF00200090012269467A48FEF73F
:10535000C1F9BDF800004AF25A5188423CD00846D3
:105360007649088001227448FEF7C8F9744800782D
:105370007249088001227048801CFEF7BFF971480D
:1053800000786E49088001226B48001DFEF7B6F9CF
:105390006D4800786949088001226748801DFEF742
:1053A000ADF96A48008865490880012262480830E2
:1053B000FEF7A4F9664800886049088001225E482B
:1053C0001030FEF79BF9634800885C490880012291
:1053D00059481230FEF792F902215F48FDF720FD8F
:1053E00020BB4FF480415D48FDF71AFDF0B9012064
:1053F0005B490870C1035948FDF71DFD00F0BEF878
:105400000120FCF7A5FD4FF49670FDF7A8FA0220E5
:10541000FCF79EFD4FF49670FDF7A1FA0320FCF710
:1054200097FD4FF49670FDF79AFA01E0FDF754FDF1
:105430004FF4A060FDF770FEFFF7F0FE4FF4E1308F
:1054400000F01EF9FCF746FC4FF4E160FFF708FF9F
:105450000020FFF741FB4FF42F70FFF701FF012001
:10546000FFF73AFBFEF774FBFFF720FAFFF700FAAD
:1054700061E04FF480413948FDF7D2FCE0B90220E9
:10548000FFF7EEFE0320FCF763FD4FF49670FDF787
:1054900066FA0220FCF75CFD4FF49670FDF75FFAA8
:1054A0000120FCF755FD4FF49670FDF758FA4FF4C4
:1054B00000412A48FDF7BDFC2A48006884420FD00D
:1054C00028480068C4B2052C05D14FF48051224809
:1054D000FDF7AFFC04E04FF480511F48FDF7ABFC33
:1054E000214801882148FCF76AFC214908801E48B0
:1054F00041881E481430FCF762FC1D4948801A4858
:1055000081881A482830FCF75AFC194988801648C7
:10551000C18816483C30FCF752FC1549C880FFF79B
:10552000D9FE012805D11348FFF70EFD1249086086
:1055300000E000BF00BF9CE7007A000822000020C6
:105540001400002015000020160000201800002084
:105550001A0000201C000020000C01400010014037
:105560002C0000206C0100200A0600209C05002071
:10557000000600209C0100202800002010B5002417
:1055800002E000F055F8641C082CFADB002402E06D
:1055900000F04EF8641C082CFADB002402E000F056
:1055A00005F8641C082CFADB10BD000010B54FF4A0
:1055B00000611348FDF73FFC00BF00BF00BF00BF04
:1055C00000BF00BF00BF00BF00BF00BF00BF00BFE3
:1055D00000BF00BF00BF00BF00BF00BF00BF00BFD3
:1055E00000BF00BF00BF00BF00BF4FF40061044810
:1055F000FDF71FFC00BF00BF00BF00BF10BD0000D3
:10560000000C014008B501210820FDF7FBFE4FF416
:105610000060ADF8000003208DF8020010208DF826
:10562000030069460148FDF770FB08BD000C01400E
:1056300010B54FF400611148FDF7FDFB00BF00BF3E
:1056400000BF00BF00BF00BF00BF00BF00BF00BF62
:105650004FF400610948FDF7ECFB00BF00BF00BF3D
:1056600000BF00BF00BF00BF00BF00BF00BF00BF42
:1056700000BF00BF00BF00BF10BD0000000C014014
:1056800010B586B00446012144F20400FDF7BAFECD
:105690004FF40070ADF8140003208DF816001820A8
:1056A0008DF8170005A91C48FDF72FFB4FF480600B
:1056B000ADF8140004208DF8170005A91648FDF771
:1056C00024FB25208DF8000003208DF801008DF8C3
:1056D000020001208DF803006846FDF7E5FC019407
:1056E0000020ADF80800ADF80A00ADF80C00ADF8E8
:1056F00010000C20ADF80E0001A90848FFF718F8BB
:10570000012240F225510548FEF7EDFF0121034833
:10571000FEF74CFF06B010BD000801400038014004
:105720000FB438B505A800900B48009A0499FAF711
:10573000D3FD002000900848FAF7ECFE85B2002463
:1057400005E00549085DFFF789FA601C84B2AC42A8
:10575000F7DB38BC5DF814FB040B002010B5002902
:105760000AD00878002807D005487844FAF736FFB1
:10577000002801D0002010BD0248784410BD000070
:10578000220200001A02000010B500290AD0087891
:10579000002807D005487844FAF720FF002801D0F8
:1057A000002010BD0248784410BD00001202000025
:1057B0000A020000FBF7C4BAFBF7F8BB12010002B3
:1057C0000200004083044057000201020301090265
:1057D0004300020100C0320904000001020201007E
:1057E00005240010010524010001042402020524FF
:1057F000060001070582030800FF09040100020AF0
:105800000000000705030240000007058102400078
:1058100000040309042603530054004D006900638B
:105820000072006F0065006C006500630074007218
:10583000006F006E00690063007300320353005470
:10584000004D0033003200200056006900720074E1
:1058500000750061006C00200043004F004D0020E7
:105860000050006F0072007400200020000400004F
:10587000080000000000000002000100001000000D
:10588000000000000000000030313233343536377C
:105890003839414243444546403058003031323374
:1058A0003435363738396162636465664030780074
:1058B0003031323334353637383961626364656686
:1058C000787000303132333435363738394142431D
:1058D000444546585000000002400000000000A06F
:1058E0000000000005400000000000C800000000AB
:1058F0000C4000000000409C000000001940000027
:105900000020BCBE0000000034400000BFC91B8E58
:1059100000000004B5400000504BCFD06607E2CF36
:10592000010000006C4100003E8251AADFEEA73466
:1059300001000000D9420000DCB5A0E23A301F9718
:10594000FFFFFFFFB4450000FD25A0C8E9A3C14F3C
:10595000FFFFFFFFFF3F000000000080000000008D
:10596000FF3F00000000008000000000B85A00085F
:10597000000000209C01000028010008545B000882
:105980009C0100204C1D0000840100081C00000048
:1059900043000000F8FFFFFF0C0000000E000000B5
:1059A0000F0000002E000000100100004300000066
:1059B000F8FFFFFF00404040404040404040414130
:1059C00041414140404040404040404040404040D4
:1059D000404040404005020202020202020202026E
:1059E000020202020220202020202020202020026B
:1059F00002020202020290909090909010101010FB
:105A00001010101010101010101010101010101096
:105A1000020202020202888888888888080808082A
:105A200008080808080808080808080808080808F6
:105A3000020202024000000000000000000000001E
:105A40000000000000000000000000000000000056
:105A50000000000000000000000000000000000046
:105A60000000000000000000000000000000000036
:105A70000000000000000000000000000000000026
:105A80000000000000000000000000000000000016
:105A90000000000000000000000000000000000006
:105AA00000000000000000000000000000000000F6
:105AB00000000000000000001184A24A04180B013D
:105AC0000203040607080904020C011829256929A4
:105AD000052F02040608141A03531254124D1233F0
